:020000021000EC
:1090000000000120B5920100DD920100DF92010015
:10901000E1920100E3920100E592010000000000EE
:10902000000000000000000000000000E7920100C6
:10903000E992010000000000EB920100ED920100B6
:109040002DC40100EF920100C5CC0100EF92010098
:10905000EF920100EF920100D9C70100EF920100E9
:10906000EF920100EF920100EF920100EF920100F8
:10907000EF920100EF920100EF920100EF920100E8
:10908000EF920100F5AE0100EF920100EF920100B6
:10909000EF920100EF92010095FE0100EF920100B6
:1090A000EF920100EF920100EF920100EF920100B8
:1090B000EF920100EF9201000000000000000000AC
:1090C000EF920100EF920100EF920100EF92010098
:1090D000EF920100EF920100EF920100000000000A
:1090E0000000000000000000000000000000000080
:1090F0000000000000000000000000000000000070
:10910000000000000000000000000000000000005F
:10911000000000000000000000000000000000004F
:10912000000000000000000000000000000000003F
:10913000000000000000000000000000000000002F
:10914000000000000000000000000000000000001F
:10915000000000000000000000000000000000000F
:1091600000000000000000000000000000000000FF
:1091700000000000000000000000000000000000EF
:1091800000000000000000000000000000000000DF
:1091900000000000000000000000000000000000CF
:1091A00000000000000000000000000000000000BF
:1091B00000000000000000000000000000000000AF
:1091C000000000000000000000000000000000009F
:1091D000000000000000000000000000000000008F
:1091E000000000000000000000000000000000007F
:1091F000000000000000000000000000000000006F
:1092000010B5054C237833B9044B13B10448AFF3C0
:1092100000800123237010BD88230020000000007F
:10922000CC22020008B5034B1BB103490348AFF33E
:10923000008008BD000000008C230020CC2202002A
:10924000154B002B08BF134B9D46A3F5803A002118
:109250008B460F461348144A121A07F003F80F4BB7
:10926000002B00D098470E4B002B00D098470020D1
:10927000002104000D000D48002802D00C48AFF377
:10928000008006F0BDFF2000290004F0CFFF06F0AB
:10929000A3FF00BF00000800000001200000000044
:1092A00000000000882300209C3300200000000004
:1092B000000000000649074A074B9B1A03DD043BE8
:1092C000C858D050FBDC02F0F7FCFFF7B9FF0000F4
:1092D000DC230200C822002088230020FEE7FEE7EE
:1092E000FEE7FEE7FEE7FEE7FEE7FEE7FEE7FEE756
:1092F000704700BF00B583B0044B0093044A40237D
:1093000000F036F803B05DF804FB00BF15930100D0
:10931000A823002002B32DE9F843114B114E8846D3
:10932000144643F0010903270025224608EB0501F6
:10933000002005F0B3F803461D444FF47A40E41AC8
:1093400023B9337833B1C847013F06D001233370C6
:10935000002CEAD1BDE8F88370473770BDE8F88388
:1093600050150200A4230020704700BF05F074B917
:10937000F0B595B000241D460E460846174602F08B
:1093800031FB304623460822099505A91A9D089706
:109390000D950A948DF82C400C9402F087FB9DF8F3
:1093A00014308DF81140DDE9061003F00302012AA4
:1093B000CDE9020128D0022A04D0304602F016FB83
:1093C00015B0F0BDBDF81650C3F3C2038DF81030D0
:1093D000C5F389150827082D2C4628BF08243B46CD
:1093E00022460EA9304602F061FB2D1B214608AB38
:1093F00002AA0EA8274400F04FFD002DEBD1304605
:1094000002F0F4FA15B0F0BDBDF81470059DC7F375
:109410008312C3F3C2040EA93046920008238DF8CC
:109420001040C7F3831702F041FBC5F3952508AB45
:109430003A4628460EA9009302AB00F0B5FC304630
:1094400002F0D4FA15B0F0BD08B5FFF78FFF04485D
:10945000042100F025FC034B01225A7108BD00BF16
:10946000C4230200C822002038B50C4B0C4800244D
:1094700000250022C3E90045FF21C3F818249960A4
:1094800083F82024C3F8142402F060FA044610B9CB
:10949000044802F081FB204638BD00BFB8240020FC
:1094A000302302008C15020099B10E4B0E495B1A55
:1094B000DB0815D030B400220C4D02E0013293429B
:1094C0000BD035F822408442F8D151F8320030BC3C
:1094D0007047054951F830007047002030BC704794
:1094E00018467047C423020044230200882300204A
:1094F000094B013903EBC00003290BD8DFE801F069
:109500000402080604207047022070474079704723
:109510000079704700207047442302002DE9F0478E
:10952000954CD4E900239A4284B063D00023C4F858
:109530001834BFF34F8FD4E9013503EA0501CA1C83
:1095400004EB820614F82220500719D527683278D8
:1095500002F00302012A43D0022A03D172880233A7
:1095600003EB921305EA0301D4F81804CA1C04EBB8
:10957000820628B99F4239D914F822205207E6D42E
:1095800004EB81015A1CC96801912A4004EB820254
:1095900001F00301D2680292022903F102062DD0E4
:1095A000012900F09580D4F810543DB12B6828466D
:1095B0009B689847EB681D68002DF7D16F48704B8A
:1095C0007049C01AC008000440F0020000F0E0F842
:1095D000D4E90030C01A18BF012004B0BDE8F087FC
:1095E00032880233C2F383121344BBE7676004B0CE
:1095F000BDE8F087002004B0BDE8F087BDF8063074
:109600006148C3F38919B9F1500FC84628BF4FF01C
:10961000500868F38F1308F10801ADF8063002F026
:1096200097F907460028BED002F0DCF90023082293
:1096300001A9384602F006FA25EA06030133B8EB21
:10964000830F4FEA830A7DD9BAF1000F00F08D80B5
:1096500005EA06010331A8EB0A0804EB810108239F
:10966000524638465FFA88F802F0ECF9474942461C
:109670000AF10803384602F0E5F909F1030906EB9F
:109680009906D4F81834002B6BD1D4F8105465B176
:10969000EB685A7928463946002A5ED02B681B6849
:1096A0009847EB681D68002DF2D1384602F09EF90C
:1096B00000230DF103008DF8033001F08BFAD4F88C
:1096C000183403B966609DF8030001F0A9FA7FE73A
:1096D000BDF804302C48C3F38312062A28BF0622A3
:1096E000911C62F389138900ADF8043002F030F95F
:1096F000074600283FF457AF02F074F90023082210
:1097000001A9384602F09EF9BDF8043013F4707FC9
:10971000B7D04FF00008314629404FEA88030331A3
:10972000083304EB81010422384602F08BF9BDF8BE
:10973000043008F10108C3F38313434506F1010621
:10974000E9D89EE705EA0601033104EB81014246B0
:109750000823384602F076F98FE71D68002D97D16F
:10976000A3E7384602F042F932E7084942460823A7
:10977000384602F067F980E7B82400206C23020025
:10978000442302007415020030230200C424002088
:109790002DE9F04F644C87B0002306460DF10B0015
:1097A0008DF80B30A568019101F014FAD4E901237A
:1097B00027681A440132D21B012A00F2858004F284
:1097C0001C4804F5836A04F214491BE0BDF80E300E
:1097D000C3F389130333090C0BEB930B4846009139
:1097E00001F09CFC009900283ED04046C4F804B02B
:1097F00001F068FCD4E90113226819440131891A87
:10980000012962D80121404601F05CFC504601F07C
:1098100075FC484601F072FCD4E9013C03EA0C02F5
:10982000D11C04EB810014F821E01EF0040F0EF0AF
:10983000040129D104EB8202591CD268039201EA87
:109840000C0104EB810102F00302012AC96803F153
:10985000020B32D0022AB9D000214846009101F013
:109860005DFC00990028C0D14046C1E743880BEB5E
:1098700093130CEA0302D11C04EB810014F82110AD
:1098800001F004010029D5D090F800E00EF0030E9D
:10989000BEF1010F0BD0BEF1020F03F1020B02F17A
:1098A000030EE3D004EB8E000029EDD1C2E702885D
:1098B0000233C2F383121344DBE7BDF80C30C3F369
:1098C0008313090C9B4489E73A4613400333023261
:1098D00005219DF80B0044F82310226001F0A0F947
:1098E0000021124801F0C4FB80F31000F1007B1C42
:1098F0002B40019A01F038013D4004EB830341F015
:1099000001010004033540EA164641EA8221DE6087
:1099100044F8251094F820341BB1FFF7FFFD002810
:10992000FBD107B0BDE8F08FB8240020D428002078
:109930002DE9F04F684C89B0002307460DF1130064
:10994000CDE902128DF81330A56801F043F9D4E98E
:10995000012326681A440132921B022A00F28580F4
:1099600004F21C4804F5836A04F214491BE0BDF8B4
:109970001630C3F389130333090C0BEB930B4846E2
:10998000019101F0CBFB019900283ED04046C4F87C
:1099900004B001F097FBD4E90113226819440131A6
:1099A000891A022962D80121404601F08BFB5046FA
:1099B00001F0A4FB484601F0A1FBD4E9013C03EA15
:1099C0000C02D11C04EB810014F821E01EF0040FFE
:1099D0000EF0040129D104EB8202591CD2680592D1
:1099E00001EA0C0104EB810102F00302012AC968BB
:1099F00003F1020B32D0022AB9D00021484601916E
:109A000001F08CFB01990028C0D14046C1E7438892
:109A10000BEB93130CEA0302D11C04EB810014F846
:109A2000211001F004010029D5D090F800E00EF0DB
:109A3000030EBEF1010F0BD0BEF1020F03F1020BBA
:109A400002F1030EE3D004EB8E000029EDD1C2E752
:109A500002880233C2F383121344DBE7BDF81430EB
:109A6000C3F38313090C9B4489E732461340033345
:109A7000033245219DF8130044F82310226001F0C1
:109A8000CFF8B31C2B4004EB8303039A1348DA602E
:109A9000002101F0EDFA80F31000F900731C2B4057
:109AA000029A01F03801354004EB830341F0410193
:109AB0000004033540EA174741EA8221DF6044F899
:109AC000251094F820341BB1FFF728FD0028FBD1A6
:109AD00009B0BDE8F08F00BFB8240020D4280020D2
:109AE0002DE9F04F6C4C89B0002607460DF11300AC
:109AF000CDE9011203938DF81360A56801F06AF8AF
:109B0000D4E9012326681A440132921B032A00F289
:109B1000858004F21C4804F5836A04F214491BE0B2
:109B2000BDF81630C3F389130333090C0BEB930B09
:109B30004846009101F0F2FA009900283ED04046D4
:109B4000C4F804B001F0BEFAD4E901132268194444
:109B50000131891A032962D80121404601F0B2FA85
:109B6000504601F0CBFA484601F0C8FAD4E9013C6E
:109B700003EA0C02D11C04EB810014F821E01EF072
:109B8000040F0EF0040129D104EB8202591CD268A3
:109B9000059201EA0C0104EB810102F00302012AA3
:109BA000C96803F1020B32D0022AB9D0002148461D
:109BB000009101F0B3FA00990028C0D14046C1E7F6
:109BC00043880BEB93130CEA0302D11C04EB8100D6
:109BD00014F8211001F004010029D5D090F800E01C
:109BE0000EF0030EBEF1010F0BD0BEF1020F03F118
:109BF000020B02F1030EE3D004EB8E000029EDD13D
:109C0000C2E702880233C2F383121344DBE7BDF8D4
:109C10001430C3F38313090C9B4489E73246134085
:109C20000333043285219DF8130044F82310226089
:109C300000F0F6FFB21C2A40F31C2B4004EB82021A
:109C400004EB830C029BD3600021039B1348CCF8E8
:109C50000C3001F00DFA80F31000F900731C2B405A
:109C6000019A01F03801354004EB830341F0810192
:109C70000004033540EA174741EA8221DF6044F8D7
:109C8000251094F820341BB1FFF748FC0028FBD1C5
:109C900009B0BDE8F08F00BFB8240020D428002010
:109CA00030B4154DD5F810140446002071B10B46A0
:109CB00001E01B6853B1DB681A798242F9D10130A7
:109CC0000A28F3D14FF0FF3030BC7047E3681871B9
:109CD000D5F810344BB1DA68E36812681A60D5F829
:109CE0001034DB681C6030BC7047C5F81044E26873
:109CF000136030BC704700BFB824002038B5094B52
:109D0000D3F81044012583F820544CB1E3685D7109
:109D1000236820465B689847E3681C68002CF5D1EF
:109D200038BD00BFB824002030B5C38885B00446D4
:109D30000D461BBB217A05291ED0627A82B9134ACF
:109D4000A08852F8212003920021FFF7ADFB039A6F
:109D50000F490346284605B0BDE8304001F05ABA25
:109D6000A088FFF7C5FB0B4B0B4953F82020284672
:109D700001F050FA217AE2E705B030BD074A0092BF
:109D80000749084A284601F045FAD3E7641602005D
:109D9000C415020040160200C0150200B8150200EA
:109DA000A0150200981502002DE9F04385B04FF090
:109DB000000C0C9C814694F80C8084F80CC00E4674
:109DC0001746184621461D46FFF7AEFF062F09D855
:109DD000DFE807F0042E343B444F1F00494620467D
:109DE00001F018FA2B7A052B05D06B7A5BB927495D
:109DF000204601F00FFA204601F000FA84F80C80AA
:109E000005B0BDE8F083224A2249204601F002FA5B
:109E1000EDE7D6E90413F2680393B3680291CDE944
:109E200000324946D6E90023204601F0F3F9D9E78C
:109E300032684946204601F0EDF9D3E7D6E9002320
:109E40004946204601F0E6F9CCE7B3680093D6E92D
:109E500000234946204601F0DDF9C3E7D6E9023286
:109E600001920093D6E900234946204601F0D2F939
:109E7000B8E7D6E90321B3680291CDE9003249463B
:109E8000D6E90023204601F0C5F9ABE7D015020062
:109E9000B8150200C0150200082900D970472DE945
:109EA000F04F9B4683B000241B7B8BF80C400D4683
:109EB00006465946104690460193DFF8D0902C4F45
:109EC000FFF732FF05E0325D013401F0A3F9082C01
:109ED00009D0A54239465846F5D84946013401F023
:109EE00099F9082CF5D12349DFF8A490224C234F8F
:109EF000584601F08FF94FF0000A0DE0D15D11F0E6
:109F0000970F08BF2E22214658460AF1010A01F098
:109F100081F9BAF1080F10D0554505D916F80A2075
:109F20007E2AEBD92E22EEE7494658460AF1010A6D
:109F300001F070F9BAF1080FEED198F80830052B4E
:109F400002D098F8093063B90D49584601F062F91A
:109F5000584601F053F9019B8BF80C3003B0BDE873
:109F6000F08F084A0849584601F054F9ECE700BF61
:109F7000D4150200E0150200E415020031210200B0
:109F8000D0150200B8150200C0150200DC15020051
:109F9000CC15020038B5174B1D783DB3164B196828
:109FA000C0B200230C4604E00133AB4204F10804C4
:109FB0001CD011F833209042F6D102F003FC6378F4
:109FC000A3F10103B3FA83F35B09834200D038BDE8
:109FD0000A4BD3E900231343F9D1094B0948196807
:109FE0000022BDE83840490800F018BC00231B7867
:109FF000FFDE00BF74290020B8290020A02900201E
:10A0000078290020802900202DE9F04FDFF85482C4
:10A0100098F8003083B0002B00F01981DFF84892E7
:10A020008C4F8D4E00254FF0010A3C6814F8350026
:10A0300002F0C8FB04EBC50314F835405B784FEA27
:10A04000540C14F0010E16F80C10A3F10103B3FA2E
:10A0500083F314BF0A0901F00F025B09042A00F21E
:10A06000A080DFE802F0725D32200300834240F0FE
:10A07000AB80BEF1000F0CBFF0230F2303EA0103F6
:10A080000CBF03213021194306F80C1098F800206A
:10A0900001359542C9DBD9E90023134340F0CD8057
:10A0A00003B0BDE8F08F83427BD0BEF1000F0CBF40
:10A0B000F0230F2303EA01030CBF042140211943BD
:10A0C00006F80C1098F80020E2E783426CD1BEF14C
:10A0D000000F0CBFF0230F2303EA010398F80020C0
:10A0E0000CBF03213021194306F80C10002AD2D0EE
:10A0F000D7F800C00023614603E0934201F1080154
:10A10000C6D01CF83300A04203F10103F5D14B681F
:10A11000002BBDD020460121984798F80020B7E7D2
:10A12000834219BF0020034602232020BEF1000F06
:10A130000CBFF0220F2201EA020118BF03460B43B5
:10A1400006F80C3098F80020A2E7834229D1BEF12E
:10A15000000F14BF0F23F02303EA010314BF1021E3
:10A16000012119430DF107004FF0000306F80C1010
:10A170008DF8073000F02EFDD9E90032A4F120015E
:10A18000C4F120000AFA01F12AFA00F001430AFAA8
:10A1900004F4114323439DF80700C9E9003100F09E
:10A1A0003FFD98F8002073E7BEF1000F0CBFF023CD
:10A1B0000F2303EA01030CBF01211021194306F804
:10A1C0000C1098F8002063E7BEF1000F14BF0F23B6
:10A1D000F02398F80000194006F80C1098B1D7F851
:10A1E00000C00023624603E0834202F108020AD065
:10A1F0001CF83310A14203F10103F5D1536813B1E8
:10A200000021204698474FF000030DF107008DF81C
:10A21000073000F0DFFCD9E90032A4F12001C4F1DD
:10A2200020000AFA01F12AFA00F001430AFA04F4C4
:10A2300022EA010123EA0403ADE7084B0848196844
:10A240000022490800F0EAFA03B0BDE8F08FDFF819
:10A25000189020E7B8290020A8290020782900209C
:10A260008029002074290020A0290020092A43D930
:10A270002DE9F04182B0144606460D4602F056F92B
:10A28000002832D0214A2249224B16600D70224804
:10A290001C600021102205F0E5FF204B002000216A
:10A2A0006C1EC3E90001E4B245B3DFF87C8006EB25
:10A2B000C404032702E0A64220D01C469DF80630C5
:10A2C000A57820788DF8047023F00703424601A991
:10A2D0008DF806308DF8055002F032F9A4F108032C
:10A2E0000028E8D002B0BDE8F08102F0D5F80028DF
:10A2F000C8D002B0BDE8F08107207047084A09487D
:10A30000002100F07DFA02B0BDE8F081B8290020FC
:10A310007429002078290020A8290020A0290020E5
:10A3200009A0010084160200959F010070B5084D38
:10A330002B785BB1074E00243368012113F83400F9
:10A3400002F0E2F92B780134A342F5D8002070BD69
:10A3500074290020B829002000B585B003460021EB
:10A3600001AA44F20100CDE90111039300F004F8C1
:10A3700005B05DF804FB00BF10B572B6FFF7BEFC78
:10A38000FFF7CCF80028FBD1104B114C1149E41A0F
:10A39000E408240444F00100FFF7FAF90E4B1B68AF
:10A3A000DB0700D500BE0D4944F00200FFF7F0F9CD
:10A3B000BFF34F8F0A490B4BCA6802F4E0621343A4
:10A3C000CB60BFF34F8F00BFFDE700BF4423020007
:10A3D0006C23020088160200F0ED00E094160200E3
:10A3E00000ED00E00400FA0559B142B1531E1A40D5
:10A3F00005D1826001608380C260104670470920E9
:10A4000070470E20704700BF10B48468C2680346CE
:10A410008088121B904203D204205DF8044B7047E1
:10A42000DA681C6802400020A154DA680132DA6060
:10A430005DF8044B704700BF03468068DA689042BD
:10A440000DD010B498689A881C6802400020A25C65
:10A450000A709A6801329A605DF8044B70470520D3
:10A46000704700BFD0E90223D1E90201994208BF39
:10A4700090422CBF01200020704700BF2DE9F04F13
:10A480002DED028B85B0064600F0F4FC40B1B54AD4
:10A49000D2E9003113F1807341F10001C2E90031CA
:10A4A0000021304600F002FDAF4C60B1236853B18B
:10A4B000AE4B25681B7823B11DB12B7F002B40F0DC
:10A4C0001C81002323600121304600F0EFFC0028AE
:10A4D00040F0F680A64803A900F06CFD78B3A54DC6
:10A4E000DFF88882A24F0BE0002B00F0CD8003A99B
:10A4F000384600F08FFD03A9384600F05BFDF0B14F
:10A500000378012B12D0022BEED128464FF0000920
:10A5100001F07AFB30B180F81C90284601F074FB02
:10A520000028F8D1012388F80030E0E7416823686B
:10A53000994200F0BA80284601F070FBD7E7DFF8B7
:10A5400034828D4FDFF81C9208EE106A37E04046E7
:10A5500001F05AFB05463846AB68EA680193009261
:10A5600000F0B4FC854E8446D9E90001D6E9002309
:10A5700010EB0C0041F10001994208BF9042DDE967
:10A58000002303D210F1807041F10001B3EB000A07
:10A5900062EB010BBAF1010F7BF1000329DBBAF585
:10A5A000350F6BD2AA684FF496030021384600F0AD
:10A5B000DBFB00285AD00D281FD000232360404623
:10A5C00001F028FB002873D02368002BBFD023683C
:10A5D000D0E90201D3E90223994208BF904248D250
:10A5E00023681B7F002BB2D02168404601F0F8FAA7
:10A5F000ADE70021384600F04DFC5C4B1B78002B8A
:10A60000DBD02B7F002BD8D0384600F05FFC84468F
:10A61000D9E90001D6E9002310EB0C0041F100015B
:10A62000994208BF904203D210F1807041F10001BD
:10A63000D5E90223994208BF904259D32B6903B947
:10A640002B77D5E90530984729690029B5D02B7FAC
:10A65000002BB2D0D5E90223521843F10003C5E91B
:10A6600002232946404601F0BBFAA6E72368BBB1A6
:10A67000256005B0BDEC028BBDE8F08F384600F0D8
:10A6800025FC3F4A02448EE743681A7F002A7FF484
:10A690002EAF01221A774168284601F0A1FA26E779
:10A6A00018EE100A00F032FBE2E7002323601EE7F9
:10A6B0002368002BDDD118EE100A00F02BFBD8E741
:10A6C0002D482E4D00F002FC264BD3E90089D5E938
:10A6D000002318EB000849F10009994508BF90458F
:10A6E00003D218F1807849F10009C5E90089F1E643
:10A6F0002946404601F074FA5FE71F4800F0E6FB88
:10A70000184A1E4BD2E90089D3E9002318EB000850
:10A7100049F10009994508BF904503D218F18078A6
:10A7200049F10009D5E90223994508BF904529D38D
:10A730002B6903B92B77D5E905309847296900299A
:10A740003FF4BFAE2B7F002B3FF4BBAED5E9022315
:10A75000521843F10003C5E902230648294601F0D7
:10A760003FFAAEE6C0290020402A0020C829002078
:10A77000242A0020B4160200D0220020382A00200B
:10A78000FFFFB4000248294601F02AFA99E600BF0B
:10A79000B416020010B5134B13491B68134882B05E
:10A7A00058220193082300F0AFFB044610B1204665
:10A7B00002B010BD0E4A0F4801A900F049FA044644
:10A7C0000028F4D10B48012100F04AFB012319466F
:10A7D000094A084800F0A2FA084B012220461A70E4
:10A7E00002B010BDB0160200CC290020242A00209F
:10A7F0007DA40100D0220020FFFF7F00C829002097
:10A800004AB1A1F101010368B1FA81F14909C3E933
:10A810000412002070470720704700BF037F0BB170
:10A8200000207047F0B5826183B004461A480D4697
:10A8300000F04CFB194B1A49D3E90023D1E900671A
:10A84000121843F10003BB4208BFB24203D212F117
:10A85000807243F100035219216943F10003C4E9F6
:10A86000022301B125610F4801A900F065FB48B141
:10A8700000254460057001A90A4800F08BFB20B94F
:10A8800003B0F0BD042003B0F0BD034800F022FB8C
:10A89000284603B0F0BD00BFD0220020C029002010
:10A8A000382A0020242A002030B5002583B0044631
:10A8B000057701A90B4800F03FFB78B10122446005
:10A8C000027001A9074800F065FB08B903B030BD6C
:10A8D000054800F0FFFA284603B030BD042003B05D
:10A8E00030BD00BF242A0020D022002030B50478DB
:10A8F000012C83B004D0022C2DD0ECB103B030BDBC
:10A90000037A002B3CD04368364D19782846FFF770
:10A910007BFD002854D0344B01901B688DF800401B
:10A9200068469847A968EB68AA885B1A9A4227D2BA
:10A930002E4B01221A70E1E72D492E48FFF77CFDCE
:10A9400000282ED0284B03221B688DF80020684673
:10A95000984703B030BD284B284D1A78C168AA5CCF
:10A9600001918DF80040B2B9254903F10C00012294
:10A9700002F0FAFB1C4B68461B68984703B030BDD9
:10A980001D4B1E4A1B781E49D35C0122A3B11D48F2
:10A9900002F094FEB2E71A49181D012202F08EFE61
:10A9A000E8E71548154A0378D35CA3B110490122A2
:10A9B000043002F01BFEA1E7134802F0D5FB9DE72F
:10A9C000AA68EB689A42ADD0074B8DF800001B686F
:10A9D00068469847A6E7064901220C3002F050FB72
:10A9E0008CE700BF482A0020442A0020582A002073
:10A9F000702A00205C2A0020D8220020103300207A
:10AA00006C2A0020DC220020E42200202DE9F04105
:10AA1000334D8AB02A60002956D08A8880460D4678
:10AA2000304809681C46FFF7DFFC10B10AB0BDE8EA
:10AA3000F081AA89A9682C48FFF7D6FC0028F5D137
:10AA40002A4E98F810C02A4F0FCE02AD0FC596E8D7
:10AA50000F0098F81160BCF1000C85E80F0018BFDA
:10AA60004FF0010CD8F804300193002ED8F81430C0
:10AA7000D8F808508DF8244014BF0E220022D8F8D0
:10AA80000C40D8F800608DF81D200893194A019BEE
:10AA90008DF81CC002A93846CDE9044503960293FF
:10AAA00001F05AFC0028C1D1D8F80030124A013315
:10AAB0001070BBD0114A3B78D35C4BB11049381DA4
:10AAC000012202F0FBFDB1E707200AB0BDE8F081EA
:10AAD0000B4907F10C00012202F046FBA6E700BF7C
:10AAE000442A0020482A00205C2A0020C0160200C8
:10AAF000D8220020EDA80100582A002010330020A1
:10AB00006C2A002070B5114D014611482E78FFF7D0
:10AB100093FC04460EB9204670BD0E480E4A0378D9
:10AB2000D35C00222A7053B10C490430012202F098
:10AB3000C5FD0028EFD0FFF70FFC204670BD074988
:10AB400001220C3002F010FBF3E700BF582A00206E
:10AB5000482A0020D8220020103300206C2A002030
:10AB600070B501461548FFF74FFC044608B1204672
:10AB700070BD134D134E2B78F35CA3B1281D02F06A
:10AB80008FFD0028F3D110490C48FFF755FC002831
:10AB9000EDD12B780C49F35C01224BB1BDE870403C
:10ABA0000A4802F023BD05F10C0002F0D1FAE8E7F3
:10ABB000BDE87040064802F063BA00BF5C2A00207E
:10ABC000D822002010330020702A0020DC22002030
:10ABD000E422002070B4EFF3108472B60D4B9A6833
:10ABE000AAB90D490D4E01259D60D1F88050354020
:10ABF0001D60C1F88060D1F884505D604FF0FF3374
:10AC0000C1F88430027004B962B670BC7047012389
:10AC10000370F8E70433002000E100E0FC06FFBD0C
:10AC2000094B9A687AB170B910B4EFF3108172B61B
:10AC3000064A1C6814605C685460986001B962B68A
:10AC40005DF8044B704770470433002000E100E0DA
:10AC500070B5264C4379264E04EBC30546F82320F5
:10AC60002D79002D35D103680A88C3F8082590F99D
:10AC700004308A78002B24DB03F1604303F5614341
:10AC80005201D2B283F8002390F90420194E1A4BD6
:10AC9000012502F01F01520905FA01F146F82210C0
:10ACA000164E4279164944F83200981B04EBC20450
:10ACB000C008000440F003002571FEF769FD002084
:10ACC00070BD104903F00F0352011944D2B20A7645
:10ACD000DAE70A4B08480C49C01AC008000440F0E3
:10ACE0000200FEF755FD082070BD00BF742A002049
:10ACF0007C2A002000E100E07C23020044230200C3
:10AD000004170200FCEC00E0E016020003680122D8
:10AD10001A607047036801225A607047F0B40468F3
:10AD20004FF480358D40C4F80853066801F1500493
:10AD3000C6F84853A4000668A4B20027375182B071
:10AD400036590468019601F5A87122F07F42019EF0
:10AD500044F821200268C2F8445313B10368C3F8D1
:10AD6000045302B0F0BC70472DE9F04704464FF49D
:10AD7000803600688E40C0F848632068C0F80863D9
:10AD8000206800EB81058A46D0F80415D5F8400507
:10AD9000C5F840150AF15005AD002768ADB24FF077
:10ADA000000847F8058082B0401A7F59009720F0CC
:10ADB0007F40012822F07F479946009A41D02268BF
:10ADC000D2F80455C2F844637A1B22F07F42012A6C
:10ADD0000AF5A87125D0226842F821702068D0F8C1
:10ADE00004557A1BC9F1FF13013A03F57F4322F0A2
:10ADF0007F42934211D342B1C0F8446323680020DC
:10AE0000C3F8046302B0BDE8F087013740F8217051
:10AE10002068D0F804359D42EED00D2002B0BDE888
:10AE2000F08720680D4B013740F8217043F0010393
:10AE30004FF4806098472068D0F804359D42DBD0FD
:10AE4000EBE7064A4FF4806042F001029047226827
:10AE500042F8058052590192019AB0E7201702008A
:10AE600002680223C2F8443311B10268C2F8043305
:10AE7000704700BF0368D3F8040100B9704700228F
:10AE800082B0C3F80421D3F804310193019B01205F
:10AE900002B0704702684FF4803303FA01F1C2F840
:10AEA00048130368C3F80813704700BF5031890086
:10AEB000036889B2585800B9704700225A5082B0CE
:10AEC0005B580193019B012002B070470368D3F8DF
:10AED0000405704790F9043005485A0901214032B1
:10AEE00003F01F0301FA03F340F82230704700BF5C
:10AEF00000E100E0024A034B10681B68184700BFDE
:10AF0000742A00207C2A002099B110B4B2FBF3F41B
:10AF100003FB1424A4B244B9C0E900148460828104
:10AF2000C38120465DF8044B704709205DF8044B4F
:10AF300070470E20704700BF30B482B050E8013F28
:10AF40009DB2C48925448489A54228BF2D1B04894C
:10AF5000A54202BFBFF32F8F002207E0C5EA030519
:10AF600040E80154002CE9D14FF001028DF8032094
:10AF70000193019B9DF803200B602AB10B880068A8
:10AF8000184402B030BC704702F0FF03184602B00C
:10AF900030BC70470A884B889A4201D00020704725
:10AFA00050E8012FC2EA024240E80123002BF7D10A
:10AFB0000120704730B482B050E8023F1FFAA3F579
:10AFC000C488A54202BFBFF32F8F00220DE0C489C1
:10AFD00025448489A54228BF2D1BC3EA054540E8C6
:10AFE0000254002CE8D14FF001028DF803200193A8
:10AFF000019B9DF803200B602AB14B880068184420
:10B0000002B030BC704702F0FF03184602B030BCFB
:10B01000704700BF0A884B889A4201D000207047D1
:10B0200050E8022FC2EA224240E80223002BF7D167
:10B03000012070474A09012301F01F0100EB820043
:10B0400003FA01F100F022B801F01F0201234909BF
:10B05000934000EB8100D94300F026B84B0901F082
:10B060001F0150F82300C84000F00100704700BFE6
:10B0700010B4034653E8000F0A4643E8002494F056
:10B08000000FF7D15DF8044B704700BF10B40346C2
:10B0900053E8002F42EA010043E8000494F0000F57
:10B0A000F6D15DF8044B704710B4034653E8002F07
:10B0B00002EA010043E8000494F0000FF6D15DF8C5
:10B0C000044B704710B4034653E8002F02EB010015
:10B0D00043E8000494F0000FF6D15DF8044B70478C
:10B0E00010B4034653E8002FA2EB010043E800042C
:10B0F00094F0000FF6D15DF8044B704710B403468E
:10B10000012253E8001F41EA020043E8000494F0E2
:10B11000000FF6D15DF8044B704700BF10B4034632
:10B12000002253E8000F00EA020143E8001494F003
:10B13000000FF6D15DF8044B704700BFB8B130B4D2
:10B14000D0E90112521A0468D2B2531E2160DBB258
:10B1500042B101680A685C1E551C0D601370E3B2B1
:10B16000FF2BF6D103680020187130BC70470E2009
:10B17000704700BFF0B583B0044600250DF107000D
:10B180008DF80750FFF726FDD4E900311A688A428E
:10B1900010D9511E19602168A3680F6812F8015C6C
:10B1A0000A79268AE068DB1BDBB29A4206FB0505BA
:10B1B00038BF0B719DF80700FFF732FD284603B03A
:10B1C000F0BD00BF30B5054683B000230DF1070088
:10B1D0000C468DF80730FFF7FDFC2A681368591CF0
:10B1E0001160E9682A8A641AB4FBF2F41C709DF8B5
:10B1F0000700FFF715FD03B030BD00BF826842B104
:10B2000010B5044643690168006998470023A360AC
:10B2100010BD70470EB400B582B0039921B104ABE4
:10B2200001AA019300F0ACF802B05DF804EB03B0A2
:10B23000704700BF2DE9F04F164683B0B142DDE9FB
:10B240000C920F4605469A46C0F095800B464FF08B
:10B250000108B3FBF6F39E4208F10108F9D9D04585
:10B2600038BFD04612F00103019302D1B9F1000FAB
:10B270005ED1AA68012403E00AF1FF3A06FB04F458
:10B28000BAF1010FF8D8B7FBF4F39E42F6D9DFF814
:10B29000ECA007E0B442B4FBF6F31AD3AA681C464C
:10B2A000B7FBF3F31AF803B0BBF10A0F04FB1377F3
:10B2B00028D02B68511CA96003F802B0D5E90132EF
:10B2C0009A42E7D32846FFF799FFB4FBF6F3B4425E
:10B2D000E4D2019B9BB1B9F1000F10D02024C845E6
:10B2E00009F1FF390BD2AB682A68591CA960D45404
:10B2F000D5E901329A4214D2B9F1000FEFD103B06F
:10B30000BDE8F08F511C2B68A9604FF00D019954D6
:10B31000D5E901329A42CCD32846FFF76FFFAA68DD
:10B32000C7E72846FFF76AFFB9F1000FD7D1E6E774
:10B3300093071AD42024AA68C84502F1010199D2C2
:10B340002B68A9609C54D5E901329A4209F1FF3972
:10B3500003D2B9F1000FEFD18CE72846FFF74EFF7B
:10B36000AA68B9F1000FE7D184E7BAF1000F0CBF6A
:10B3700030242024DFE74FF0010870E7281702008F
:10B38000002900F054822DE9F04FDFF8B8950C78D1
:10B3900085B0064690460D464FF00D0A10E00A2C87
:10B3A000B36800F0AD803268591CB160D454D6E95E
:10B3B00001329A4280F0A0802C78002C00F0878027
:10B3C0000135002C00F08380252CE8D12946002788
:10B3D0000D4611F8012B2D2A00F08880302A00F04C
:10B3E00088802B2A7AD02A2A00F09980A2F1300393
:10B3F000092B4FF000040BD804EB840402EB440447
:10B4000015F8012FA2F13003092BA4F13004F3D970
:10B410002E2A00F09080002301E015F8012F02F0A1
:10B42000FB016829F9D0252A00F07781583AD1B27A
:10B43000202947D8202A45D8DFE812F035014400FA
:10B4400044004400440044004400440044004400DC
:10B45000440043011301440044004400440013012C
:10B46000440044004400440044004400D20044002E
:10B470004400A2004400940044004400350101202F
:10B480009842024638BF1A460292002C40F0508182
:10B49000B80740F16E81002B40F04E821C46BBF194
:10B4A000000FC0F20A827A0700F11A8207F0030245
:10B4B000022A00F0EA81CDE9004759460A223046C7
:10B4C000FFF7B8FE01352C78002C7FF479AF337B81
:10B4D000002B40F01C8105B0BDE8F08F0D4611F83F
:10B4E000012B2D2A47F004077FF478AF47F00107BE
:10B4F0006EE747F002076BE73046FFF77FFE5BE73A
:10B500003268591CB16002F803A0D6E901239342C6
:10B51000FFF449AF3046FFF771FEB36843E7D8F850
:10B5200000301A1DC8F800206A781C682E2A05F120
:10B5300001057FF470AF6A78A2F13003092B05F1A1
:10B5400001054FF000033FF66AAF03EB830302EB04
:10B55000430315F8012FA2F130010929A3F13003AB
:10B56000F3D95CE7D8F80020111DC8F80010116865
:10B570003046CDE900470A22FFF75CFE0135A2E71D
:10B58000D8F800301A1DC8F8002017F00107D3F8CA
:10B5900000B040F0F080BBF1000F03D0584604F03B
:10B5A00089FE0746BC4240F24381002C00F04081F6
:10B5B000202205E0BC4200F03B81002C00F03881E5
:10B5C000B1683368481CB0605A54D6E901309842DB
:10B5D00004F1FF34EED33046FFF710FE2022E9E7F6
:10B5E000D8F80020131DC8F80030B3683168176818
:10B5F000581C3022B060CA54D6E90123934280F02F
:10B60000EF803268581C7821B060D154D6E90132FD
:10B610009A4280F0E0800F2F03D93B461B090F2B85
:10B62000FCD84FF0805406E00F2C4FEA14137FF63D
:10B6300049AFB2681C46B7FBF4F319F803B0BBF18D
:10B640000A0F04FB137754D03368511CB16003F820
:10B6500002B0D6E901329A42E6D33046FFF7CEFD7A
:10B66000E2E7D8F80020111DC8F80010D2F800B0A9
:10B670008BEAEB72A2EBEB72092A7FF700AFDFF8DF
:10B68000C8C2012011466329ACFB02E200F10100AF
:10B690004FEAD202F6DC9842024638BF1A460292BE
:10B6A000002C45D1F4E6D8F80020111DC8F8001090
:10B6B00011683046CDE900471022FFF7BBFD013588
:10B6C00001E7D8F800301A1DC8F800201C78B368CC
:10B6D0000A2C00F011813268591CB160D454D6E9AB
:10B6E00001329A42FFF4EEAE3046FFF787FD013596
:10B6F000E9E63368511CB16003F802A0D6E90132D3
:10B700009A42A1D33046FFF779FDB2689CE73046F4
:10B7100005B0BDE8F04FFFF771BDB3683168581C44
:10B72000B060CA54D6E901329A42DDD20135CAE688
:10B73000BBF1000F59DB7A0757D4B80702D5002BAD
:10B740003FF4ADAEF9073FF5AAAE94B120220299BD
:10B75000A142BFF4A4AEB168481CB0603068425446
:10B76000D6E90101814204F1FF3480F0D480002C3D
:10B77000EDD1002493E69BF80030002B00F0E08030
:10B78000B0685F46CBF101020A2B02EB070B3CD0FD
:10B79000411CB16031680B54D6E90130984226D281
:10B7A00017F8013F002BEFD15C457FF68BAE2027C9
:10B7B00002E05C453FF486AEB2683368511CB1606C
:10B7C0009F54D6E901329A4204F1FF34F1D3304656
:10B7D000FFF714FDEDE73046FFF710FDB2681AE7FA
:10B7E0003046FFF70BFDB3680BE7013CA5E7304699
:10B7F0000292FFF703FD17F8013F002BD4D0029A05
:10B80000B0680A2B02EB070BC2D1411CB160316852
:10B8100001F800A0D6E901108842B9D33046CDE93D
:10B820000232FFF7EBFCDDE90232B068B0E77047A7
:10B830009BF80040002C3FF445AE0A2CB0680ED0B7
:10B840003368421CB2601C54D6E90130984214D2CD
:10B850001BF8014F002C3FF435AE0A2CF0D13368B1
:10B86000421CB26003F800A0D6E901309842E7D349
:10B870003046FFF7C3FCB068E2E73046FFF7BEFC96
:10B880001BF8014F002CD8D11CE6002B7FF413AE1F
:10B890008CB130220299A142BFF40DAEB168481CB0
:10B8A000B06030684254D6E90101814204F1FF34AE
:10B8B0003BD2002CEED10024FDE5B1684A1CB260F9
:10B8C00032682D205054D6E901219142CBF1000B72
:10B8D000FFF4ECAD30460393FFF790FC039BE5E5E6
:10B8E000B1684A1CB26032682B205054D6E901215D
:10B8F0009142FFF4DBADEDE73268591CB16002F80C
:10B9000003A0D6E901239342FFF4E5AE3046FFF7EA
:10B9100075FCB368DFE630460393FFF76FFC039BCB
:10B920002022002C7FF413AF23E730460393FFF768
:10B9300065FC039B3022BCE7F9073FF5B0AD18E783
:10B940009B4631E728170200CDCCCCCCFFF7F6BBE5
:10B950002DE9F041058A0331043D4E198046B6FBBE
:10B96000F5F6FFF707FCA0B3F6B24FF48073013E83
:10B970000446C580C0F8008083802BD00346002594
:10B9800008E06279AE4202F1010262713860C0F8EB
:10B9900000801FD040461F46FFF7ECFB01350346F1
:10B9A0000028EED16779791E17D0224601339942DB
:10B9B0001268FBD1D2F800805FB12668002501E053
:10B9C00034463668214601354046FFF7FBFBAF425F
:10B9D000F6D800242046BDE8F08120682146FFF714
:10B9E000F1FBF6E704300121FFF76CBB2DE9F041D4
:10B9F000012104460430FFF773FB10F0FF0301D070
:10BA0000BDE8F0816779791E16D02246013399424C
:10BA10001268FBD1D2F80080002FF1D026680025F3
:10BA200001E034463668214601354046FFF7CAFB3F
:10BA3000AF42F6D8BDE8F08120682146BDE8F0416C
:10BA4000FFF7C0BB2DE9F8430546C6884079144688
:10BA500006FB00F2043A04EB030C1F1D624538BFDD
:10BA6000D41ABE428846B7FBF6F106FB117002D825
:10BA700001392D68FCD1371AA74228BF27469CB14F
:10BA80004FF000090430E41B28443A4608EB090152
:10BA900004F0DAFBA642B9442D6837464FF00000A7
:10BAA00028BF2746002CEDD1BDE8F8832DE9F843E7
:10BAB0000546C6884079144606FB00F2043A04EBBA
:10BAC000030C1F1D624538BFD41ABE428846B7FB1F
:10BAD000F6F106FB117002D801392D68FCD1371A36
:10BAE000A74228BF27469CB14FF00009043029180F
:10BAF000E41B3A4608EB090004F0A6FBA642B94451
:10BB00002D6837464FF0000028BF2746002CEDD1A6
:10BB1000BDE8F88341DF7047064A074B10B50024A3
:10BB200014701C60BFF35F8F0449054800F042F8B1
:10BB3000204610BD882A00208C2A002044170200CD
:10BB4000802A002000B583B000230DF107008DF896
:10BB50000730FFF73FF8F1EE103A23F09F03E1EED4
:10BB6000103ABFF35F8F0B4B4022C3F884219DF83E
:10BB70000700FFF755F804F087F928B920BF40BF48
:10BB800020BF03B05DF804FBFFF7C4FF03B05DF80E
:10BB900004FB00BF00E100E082680023936082683C
:10BBA0001361826853618268D360826853608268DF
:10BBB0001360704701600B6843604A68934204BF9A
:10BBC00000234360704700BF436843B10268916837
:10BBD0000B4443605268934204BF002343607047A4
:10BBE00070B54468064620680D4618B908E0246818
:10BBF000206828B1B368294698470028F7D1206803
:10BC00002860256070BD00BF4368186808B10268ED
:10BC10001A60704743681868704700BF4368186827
:10BC200018B908E00346006828B18142FAD10A68D1
:10BC30001A60012070477047114910B4A1F5947241
:10BC400005E052F83330984238BF21460CD28C1AA6
:10BC5000E30F03EBE4035B10914202EBC304F0D863
:10BC600008485DF8044B704702D904F10802EEE77A
:10BC70006068044B5DF8044B002808BF1846704705
:10BC8000841C0200481B020070B5161E07DD0C461E
:10BC90008D1914F8010BFEF763FFA542F9D1304668
:10BCA00070BD00BF10B50C462046FEF72BFF0528DF
:10BCB000FAD0012010BD00BF30B4B84B1B78062B62
:10BCC00020D0B74B1B68062B00F08180B54AD2F814
:10BCD000883043F47003C2F88830BFF34F8FBFF34E
:10BCE0006F8F4FF01023D3F80022002AC0F2868114
:10BCF000D3F80432002BC0F28181AB4BAB4A1A60FF
:10BD000030BC7047AA4B1B681D07DAD1A94B1B68D2
:10BD100003F0F002302A00F09B8003F0E003402B98
:10BD200000F09680A34B1B6803F0F003302B00F06B
:10BD3000A080A04B1B6803F0F002302A77D003F0FC
:10BD4000E003402B73D09B4B1B6803F0F003302BB8
:10BD500000F01481974B1B6803F0F002302A52D098
:10BD600003F0E003402B4ED0924B1B6803F0F0032E
:10BD7000302B00F0F5808F4B1B6803F0F003302B65
:10BD800000F0D7808B4B1B6803F0F003502B7ED064
:10BD9000884B1B6803F0F002302A23D003F0E00345
:10BDA000402B1FD0834B1B6803F0F002302A03D0D6
:10BDB00003F0E003402B84D14FF08043D3F80024FC
:10BDC000D20744BF6FF00102C3F8002479E77A4B31
:10BDD0001B68062B7FF47AAF784A136843F48063BC
:10BDE000136073E7764B6D4A1B681278754903F050
:10BDF0004F03062A0B607FF464AF6D4B1B68190775
:10BE00007FF45FAFCEE7654A11784FF080430022A0
:10BE10000629C3F80C21C3F81021C3F838257FF494
:10BE200050AF634B1B681B077FF44BAF9CE7664B1F
:10BE30005A4A1B6812786549C3F34233062A0B60DD
:10BE40007FF43FAF5A4B1B6819077FF43AAF7AE78C
:10BE50005F4B524A1B6812785E49C3F30423062ADB
:10BE60000B607FF42EAF524B1B681C077FF429AF89
:10BE700058E74A4B584A1B7858491160062B7FF403
:10BE800020AF4B4B1B6818077FF41BAF51E74FF0F7
:10BE90008052534BD2F80414C3F82015D2F808147A
:10BEA000C3F82415D2F80C14C3F82815D2F81014CE
:10BEB000C3F82C15D2F81414C3F83015D2F818149E
:10BEC000C3F83415D2F81C14C3F84015D2F8201466
:10BED000C3F84415D2F82414C3F84815D2F828142E
:10BEE000C3F84C15D2F82C14C3F85015D2F83014FE
:10BEF000C3F85415D2F83414C3F86015D2F83814C6
:10BF0000C3F86415D2F83C14C3F86815D2F840148D
:10BF10002248C3F86C15D2F844140278C3F870159F
:10BF2000062A7FF4CEAE224B1B6818077FF4C9AEF9
:10BF30002EE71A4B2B4C1B782B492C482C4A0525F5
:10BF4000256001250D6000243F21062B046011604F
:10BF50007FF4B7AE164B1B681C077FF4B2AE11E737
:10BF60000E4B244A1B780321062B11607FF4A9AEE7
:10BF70000F4B1B681D077FF4A4AEFCE61E4A074961
:10BF8000D368097823F080730629D3607FF499AED3
:10BF9000074B1B681A077FF494AEDBE6E00F00F056
:10BFA0003001001000ED00E0EC2200200090D003F2
:10BFB000E40F00F0E80F00F0340100103C170040DF
:10BFC00058020010E40E0040440200103C050040FE
:10BFD000240300104035014074C007400DF0ADBA95
:10BFE00000C00040105600408856004018560040DF
:10BFF00014560040A0050040F0ED00E0184A01236F
:10C00000C2F80435D2F80034002BFBD04FF01023D7
:10C010001521134AC3F80012D2F80034002BFBD0CC
:10C020004FF0102315210E4AC3F80412D2F8003441
:10C03000002BFBD000230A49C2F80435D1F80034A4
:10C04000002BFBD0BFF34F8F0649074BCA6802F4A1
:10C05000E0621343CB60BFF34F8F00BFFDE700BF2B
:10C0600000E0014000ED00E00400FA054FF0A042BE
:10C07000044B1B5CD2F80405D840C04300F001001B
:10C08000704700BF881C0200044B195C4FF0A042AF
:10C0900001238B40C2F80C35704700BF881C02009A
:10C0A000044B195C4FF0A04201238B40C2F80835C5
:10C0B000704700BF881C02004FF0A04310B44FF43B
:10C0C00080204FF400344FF400214FF48012C3F865
:10C0D0000845C3F80805C3F80815C3F808255DF836
:10C0E000044B70474FF0A04310B44FF480204FF43E
:10C0F00000344FF400214FF48012C3F80C45C3F80C
:10C100000C05C3F80C15C3F80C255DF8044B7047FB
:10C11000074B4FF0A041185CD1F804350122824052
:10C1200022EA03001340C1F80805C1F80C35704736
:10C13000881C02004FF0A042044B1B5CD2F8100593
:10C14000D840C04300F00100704700BF841C0200CB
:10C150000D2809D00E2809D00F2809D010280CBFAF
:10C1600003204FF0FF3070470020704701207047D8
:10C1700002207047014B185C704700BF841C02000E
:10C18000C20730B41AD54FF0A0430322C3F84427A6
:10C190004FF40035C3F848274FF48024C3F84C27E8
:10C1A0004FF40021C3F850274FF48012C3F808550C
:10C1B000C3F80845C3F80815C3F8082583070AD54E
:10C1C0004FF0A0430C22C3F83427C3F83827C3F834
:10C1D0003C27C3F8402730BC704700BF10B568B992
:10C1E0000E4CA368012262703BB1D3E9002300200A
:10C1F000A2609847A368002BF7D110BD0128FCD19D
:10C20000064C2369A070002BF7D0D3E9002301204E
:10C21000226198472369002BF7D110BD902A002096
:10C2200070B910B5074CA368012262703BB1D3E925
:10C2300000230020A2609847A368002BF7D110BD0F
:10C24000704700BF902A002030B5012883B004D089
:10C2500003281DD0B0B103B030BD224C00230DF136
:10C2600007008DF80730FEF7B5FC23784BB3E36881
:10C270009DF8070001330122E360A270FEF7D0FCB5
:10C2800003B030BD184B0122C3F8802003B030BD8D
:10C29000144C00F0ADF800230DF107008DF80730C5
:10C2A000FEF798FCE368013BE360E5682DB19DF87B
:10C2B0000700FEF7B5FC03B030BD00F0ABF8A57089
:10C2C000F5E70A486360A3602361E36000F084F847
:10C2D00003F0DAFD10B101232370C8E700F088F8FD
:10C2E000F9E700BF902A002000E100E0DDC1010075
:10C2F00030B585B0047845688DF80040D0E902403B
:10C30000064A074B039053F82130019552F821104B
:10C310008DF808406846984705B030BDA42A002033
:10C32000A82A002030B585B0047845688DF8004013
:10C33000D0E90240064A074B039053F8213001959B
:10C3400052F821108DF808406846984705B030BD76
:10C35000A42A0020A82A0020F0B51A4B90F800C0AB
:10C36000194C1A4D91F81DE044F82C200746086935
:10C3700045F82C0003F80CE00C4616460FCC89B0AB
:10C380006D460FC594E80F0085E80F00CDF810C08A
:10C39000BEF1000F0AD0002E0D4A694607F10400D5
:10C3A00008BF324601F038F809B0F0BD002E094A46
:10C3B000694607F10C0008BF324600F093FD09B052
:10C3C000F0BD00BF10330020A82A0020A42A0020BE
:10C3D000F1C2010025C30100044A137923B90121E8
:10C3E000106091801846704785207047AC2A002065
:10C3F000074B1A68D20704D4C021012283F8001326
:10C400001A604FF080430122C3F81825704700BF1F
:10C4100000E100E0044B01221A604FF08042D2F8A4
:10C420001834DB03FBD470470C00004010B5174BE9
:10C430001A6882B062B10021154A19601B685079F0
:10C4400000934FF080410123009CC1F8083398B15C
:10C45000104B1A68BAB100221A601B6801934FF0A2
:10C46000804202210A4B0198C2F808131B68012080
:10C4700002B0BDE810401847116853718847054B5A
:10C480001A68002AE7D102B010BD00BF00010040C9
:10C49000AC2A00200401004030B5204C94F85850DC
:10C4A00083B0002D36D14FF0FF304FF0FF314FF009
:10C4B000FF33C4E90001C4E90C01C4E90E01C4E979
:10C4C0001001C4E912010422294604F15400C4E910
:10C4D0000233C4E90433C4E90633C4E90833C4E9C8
:10C4E0000A33236503F0BEFE0D4A0E4B0E491D6054
:10C4F000C02082F80603402010601B680193019859
:10C500004FF000430122284684F85820C1F8043334
:10C5100003B030BD082003B030BD00BFB82A0020F2
:10C5200000E100E07C61004000600040034B93F8B4
:10C530005800003818BF0120704700BFB82A0020FB
:10C54000F0B46F4B1D1895F93040002C61DA8C78EF
:10C55000A707C4F3400C53D41C6A013400F0C88010
:10C560005C6A013400F0BD800C260A2453F8245084
:10C57000013552D0651CB5423FD253F825700137C2
:10C5800000F0A780A51CB54237D253F825700137BB
:10C5900000F09F80E71CB7422FD253F82750013597
:10C5A0003AD0271DB74228D253F82750013533D04F
:10C5B000671DB74221D253F8275001352CD0A71D53
:10C5C000B7421AD253F82750013525D0E71DB7429C
:10C5D00013D253F8275001351ED004F10807B74293
:10C5E0000BD253F82750013516D00934B44204D287
:10C5F000DC6A013408BF0B240FD00420F0BC704764
:10C600001C68013467D05C68013460D008260224BD
:10C61000ACE70820F0BC70473C461E1865B243F8F2
:10C62000242086F83050BCF1000F02D11C4484F85D
:10C6300048008A78540714D4D6073ED44C784FF07B
:10C64000A04600F5E072A40046F822402D4EC40832
:10C6500000F0070C375D012202FA0CF23A43325522
:10C660008A7812F002021CD0AB0003F1804303F57C
:10C67000C0430978D3F8104524F4473424F44074B7
:10C68000C3F8104502020904D3F8100501F4403143
:10C6900002F4F8520A430243C3F810250020F0BC0C
:10C6A0007047083D2B44087893F8501041EA8011F8
:10C6B00083F850101046F0BC7047820002F1A0428F
:10C6C000D2F8004724F00204C2F80047BEE7012474
:10C6D000A3E72C46A1E7002485F830401A602546E0
:10C6E000A7E7092685F830605A62344635469DE74B
:10C6F000082685F830601A623446354696E700BF52
:10C70000B82A00200C2B002070B42C4C251883B0C4
:10C7100095F93020072A1CDD224492F848309B0905
:10C72000032B40D0012B0CBF4FF400334FF44033A8
:10C73000800000F1A040D0F8002722F44032C0F879
:10C740000027D0F800271343C0F8003703B070BCAF
:10C750007047D3B2072BF9D8900000F1804000F564
:10C76000C04002F140039B00D0F810659BB203F17A
:10C77000804303F5C04346F00106C0F81065002071
:10C7800018601B680193019B0029DFD095F93030B8
:10C7900054F82330002BD9D00949012303FA02F2BF
:10C7A000C1F80423D2E74FF0A043D3F81035C340BB
:10C7B00003F0010302331B04BAE700BFB82A0020CC
:10C7C000006000404FF0A043D3F8103523FA00F08A
:10C7D00000F00100704700BF2DE9F04186B0C04A6B
:10C7E000002301931168012900F0C8811E46BD4B4A
:10C7F0001A68012A00F0B481BB4B1A68012A00F0C4
:10C80000A181BA4B1A68012A00F08E81B84B1A68D0
:10C81000012A00F07B81B74B1A68012A00F052818F
:10C82000B54B1A68012A00F03F81B44B1A68012AFF
:10C8300008D0B34B1A68012A00F0AC81F6B906B0F3
:10C84000BDE8F081AF4AD2F804231206F1D50022E8
:10C850001A6019680491196E0498012903F16003A4
:10C8600046F080060AD11A601B6805934FF0A0437A
:10C87000059AD3F81035019346F00046A24F0024E4
:10C880000125A30003F180432E4203F5C0434FEA84
:10C8900045050BD0D3F8100557F82420D3F8101510
:10C8A000C0F30420C1F3014102B190470134082CC8
:10C8B000E7D1002EC3DA00224FF0FF33CDE9022387
:10C8C000914C012502AE94F95000471C37D0C0F3BB
:10C8D000C20C06AB03EB0C0700F0070317F80C2C97
:10C8E00005FA03F31A42C1B200F03F0027D0221824
:10C8F000890992F9302054F82280B8F1000F00F035
:10C900009D81032900F09D81820002F1A04217F869
:10C91000147CD2F800C71F40CCF3014C0BD0BCF103
:10C92000020F0CD1032900F0BF810027B8F1000FDE
:10C9300006D0C04704E0BCF1030F00F0A38100273C
:10C9400094F95100411C32D0C0F3C20E06AB03EB88
:10C950000E0C00F007031CF80C2C05FA03F31A4226
:10C96000C1B200F03F0022D02218890992F930208C
:10C9700054F82280B8F1000F00F07B81032900F009
:10C980007B81820002F1A04E1CF814CCDEF8002757
:10C990001CEA030FC2F3014200F03A81022A06D1D9
:10C9A000032900F08481B8F1000F00D0C04794F94A
:10C9B0005200421C32D0C0F3C20E06AB03EB0E0C89
:10C9C00000F007031CF80C2C05FA03F31A42C1B25D
:10C9D00000F03F0022D02218890992F9302054F843
:10C9E0002280B8F1000F00F03B81032900F03B8169
:10C9F000820002F1A04E1CF814CCDEF800271CEADD
:10CA0000030FC2F3014200F0ED80022A06D1032990
:10CA100000F05081B8F1000F00D0C04794F95300E6
:10CA2000431C32D0C0F3C20E06AB03EB0E0C00F079
:10CA300007021CF80C3C05FA02F21342C1B200F0E6
:10CA40003F0022D02318890993F9303054F823800D
:10CA5000B8F1000F00F0FB80032900F0FB80830099
:10CA600003F1A04E1CF814CCDEF800371CEA020FCC
:10CA7000C3F3014300F09C80022B06D1032900F090
:10CA80001C81B8F1000F00D0C047002F3FF4D7AE93
:10CA90004FF0A043019AD3F810359A423FF4CFAE3D
:10CAA000029A019303920EE7164AD2F80423510624
:10CAB0007FF5BBAE00221A601B680493049B46F00E
:10CAC0004006B2E60F4AD2F8042390067FF5A8AEDE
:10CAD00000221A601B680493049B46F020069FE620
:10CAE0000061004004610040086100400C610040AA
:10CAF0001061004014610040186100401C6100405A
:10CB00007C61004000600040B82A00206C4AD2F8E6
:10CB10000423D4067FF57FAE00221A601B680493BD
:10CB2000049B46F0100676E6654AD2F80423150702
:10CB30007FF56CAE00221A601B680493049B46F0DC
:10CB4000080663E65E4AD2F8042357077FF559AE1C
:10CB500000221A601B680493049B46F0040650E60A
:10CB6000574AD2F8042392077FF546AE00221A6096
:10CB70001B680493049B46F002063DE65049D1F839
:10CB8000046316F001063FF432AE13601368049399
:10CB9000049B2CE600221A601B6805934FF0A0430B
:10CBA000059AD3F810350193002E3FF484AE63E666
:10CBB000032B7FF46AAF03297FF463AF4FF4003295
:10CBC000DEF8003723F44033CEF80037DEF80037C4
:10CBD0001343CEF80037B8F1000F3FF459AF0137D7
:10CBE000FFB251E7032A7FF419AF03297FF412AF94
:10CBF0004FF40032DEF8003723F44033CEF800372C
:10CC0000DEF8003701371343FFB2CEF8003701E7F3
:10CC1000032A7FF4CCAE03297FF4C5AE4FF4003273
:10CC2000DEF8003723F44033CEF80037DEF8003763
:10CC300001371343FFB2CEF80037B4E603297FF47F
:10CC40007EAE16F80C201A4306F80C205CE6032989
:10CC50007FF41BAF16F80E30134306F80E30FEE6D5
:10CC600003297FF4DBAE16F80E201A4306F80E20D7
:10CC7000BEE603297FF49BAE16F80E201A4306F891
:10CC80000E207EE603297FF451AE4FF40037D2F830
:10CC9000003723F44033C2F80037D2F800373B4363
:10CCA000C2F80037012741E64FF44037EFE74FF471
:10CCB0004032B5E74FF440329CE74FF440327FE713
:10CCC00000600040014B1B68184700BF142B002078
:10CCD000114B98421DD130B583B000230DF10700F0
:10CCE0008DF807300D46FDF775FF0C4B1C794CB9DC
:10CCF0009DF807001D6001221A71FDF791FF204683
:10CD000003B030BD9DF80700FDF78AFF112003B086
:10CD100030BD0020704700BF00200040142B0020D1
:10CD200030B56E4AD2F8043399058BB068D5D2F885
:10CD30002431002B64D00023C2F82431D2F82431EE
:10CD400001934FF40171664B0198C2F8081393F8F0
:10CD5000291009B901215160604902228DF818207B
:10CD6000D1F88024C1F880249869D96809920024F8
:10CD70000025CDE90710C3E90645D3E9001206A84E
:10CD80009047564AD2F81C31C3B1554B5869196ABD
:10CD900088426AD993F8281001F0FF00002964D175
:10CDA000C2F81C01D2F81C11039103999C68186AFF
:10CDB000196A205C01311962C2F81C05474AD2F891
:10CDC0004431DBB10021464BC2F84411D2F8440192
:10CDD00093F829100090009809B1012111609A6917
:10CDE00062B1586AD96800229A610122CDE9071020
:10CDF0008DF8182006A8D3E9001290470BB030BD7B
:10CE0000364AD2F804335B07BBD5D2F80831002B81
:10CE1000B7D0334B996900293ED00021C2F80811E0
:10CE2000D2F8081104910499D868596AD2F81825E3
:10CE300042545A6A996901325A625A6A8A42A0D1A6
:10CE4000DA69002A31D0DD685C6A18699A610121CB
:10CE50000022D860DA615A628DF81810CDE90754C3
:10CE6000D3E9001206A890478BE71C4A0021C2F8BC
:10CE70001C11D2F81C210292029A5A69002A9DD0F4
:10CE800058699A688DF8181008905961079206A899
:10CE9000D3E90012904791E7C2F80811D2F80801CF
:10CEA00005900598D2F81825C7E793F8292012B9FC
:10CEB0000A4A01215160094A4FF40171C2F808136E
:10CEC000596ADA6808910024012007928DF8180049
:10CED000D3E900129C6106A8904752E70020004069
:10CEE000202B00202DE9F041604F06792C2303FB15
:10CEF000067382B093F82A30002B40F089800546F3
:10CF00000C4600685A499046FFF7E2FE00287BD1A4
:10CF10002368591C0CD001224FF0A04102FA03F300
:10CF2000C1F80835236803F5E073032241F8232094
:10CF300063685A1C06D003F5E0734FF0A04200214D
:10CF400042F823102B68A269C3F82425217D637D54
:10CF50002A680B43C2F86C35D4E900122B68C3F879
:10CF60001425C3F80C15237D012B5DD02C2303FB66
:10CF700006F3FA18C2F804802269FA50B8F1000FDB
:10CF80002FD02A68237F3B4C0021C2F81C11D2F815
:10CF90001C2100922A68DDF800C0C2F84411D2F8C2
:10CFA00044112A6801910199C2F804432A6842F3A6
:10CFB000073100294FEA12322EDB01F1604101F501
:10CFC00061415B01DBB281F800332B682A4C43F3EB
:10CFD00007325209C3F30433012101FA03F344F881
:10CFE00022302C23296803FB067604240023012227
:10CFF000C1F80045C6E9063386F82A2086F82930AC
:10D00000736102B0BDE8F081112002B0BDE8F0818B
:10D01000082002B0BDE8F081184902F00F025B0160
:10D020001144DBB20B76D0E7A368591C06D003F598
:10D03000E0734FF0A042002142F82310E3685A1C2D
:10D040000DD001224FF0A04102FA03F3C1F80835D8
:10D05000E36803F5E073032241F82320E3682A68BC
:10D06000A168C2F80835C2F810157FE7202B002010
:10D0700021CD01008000020000E100E0FCEC00E0B6
:10D080002DE9F041314E05792C2303FB056304465D
:10D09000586984B000284CD15A619960186283F8AD
:10D0A00028002268C2F81C01D2F81C1122680291E3
:10D0B0000121029F91602268D3F808C0C2F81C01C8
:10D0C000D2F81C11019101991F6A196A1CF80770A6
:10D0D00001311962C2F81C755A6812B104B0BDE87A
:10D0E000F0815F691A6A216897421BD9864602E07F
:10D0F00093F828200ABBD1F81C21002AF8D0C1F8E7
:10D100001CE1D1F81C210392039AD3F820801A6AFB
:10D110001CF8088001321A62C1F81C851A6A97420D
:10D12000E9D82168D1F81C31002BFBD00123CB605A
:10D1300004E0112004B0BDE8F0810F202C2303FB94
:10D14000056500236B6104B0BDE8F081202B002051
:10D150000379044A2C2101FB03235869003818BFC6
:10D1600001207047202B0020F0B4504F06792C236B
:10D1700003FB067386B05D68044625B103684FF46F
:10D180000170C3F808032C2303FB0673986990B160
:10D19000D86900287CD11961DA612C2303FB06735E
:10D1A0005A683AB323684FF40172C3F8042300208D
:10D1B00006B0F0BC704793F829509A61D960586264
:10D1C000D861002DE9D12368C3F82451D3F8242174
:10D1D00023680192019AC3F80851D3F80821236803
:10D1E0000292012202991A602C2303FB06735A68EB
:10D1F000002AD7D12168C1F84421D1F844210392F3
:10D20000039A2268D2F82411D2F80851D2F84401C6
:10D2100055B9002833D10029F4D02C2303FB06761E
:10D220000023B3610320C3E70029F6D148BB996905
:10D23000C2F8080181B1D2F8081104910499DD689F
:10D24000596AD2F818256A545A6A996901325A62A1
:10D250005A6A9142D5D806E0D2F80811059105998D
:10D26000D2F818255B6A2C2303FB0676002296F879
:10D270002930B261A3B1236801221A6098E700291E
:10D28000CBD12C2303FB06760023B3610F208FE75D
:10D2900055B123684FF40172C3F80423112087E7C6
:10D2A000236801225A6083E7112081E7202B0020A8
:10D2B00030B5574BD3F824218BB0002A75D000220B
:10D2C000C3F82421D3F82421049202228DF81820D7
:10D2D000049AD3F880144F4AC3F880140991D3F804
:10D2E0003C15D3680891002400250793C2E9064540
:10D2F0001168536806A89847454BD3F8442152B1AA
:10D300000021444AC3F84411D3F8440191690390C1
:10D310000398002938D13E4BD3F820215AB100217F
:10D32000C3F82011D3F8202102920120394A029C2F
:10D33000D8605069D8B9364BD3F85821AAB100212A
:10D34000C3F85811D3F85801324A01900198506936
:10D3500058B1D3F84C05936808908DF818105161B6
:10D36000079306A8D2E9001398470BB030BDD3F855
:10D370004C05936808908DF818105161079306A822
:10D38000D2E900139847D6E7D3F83C35D168089323
:10D3900000240025012307918DF81830C2E90645C5
:10D3A000D2E9001306A89847B5E7D3F81011002971
:10D3B000A2D0C3F81021D3F8101116480591059991
:10D3C0008469D3F83C15A14296D1C469A4B1D3F8BD
:10D3D0000052846125F02005C3F80052D0E90343D0
:10D3E000C26101220891C3600168436807948DF807
:10D3F000182006A898477FE7C26884610123CDE919
:10D4000007218DF81830D0E9001306A8984773E774
:10D4100000200040502B00202DE9F04307796E4E8C
:10D4200007EBC70306EB830387B093F82030002B8C
:10D4300040F0A38004460D46006868499146FFF716
:10D4400047FC002840F095802B68591C4FEAC7081C
:10D450000CD001224FF0A04102FA03F3C1F80835C5
:10D460002B6803F5E073032241F823206B685A1CF4
:10D4700006D003F5E0734FF0A042002142F82310DC
:10D480002368A969C3F82415297D6A7D23680A43A6
:10D49000C3F86C25D5E900312268C2F80C35C2F812
:10D4A00014152B7D012B74D008EB070206EB8203C9
:10D4B000C3F804902B6946F82230B9F1000F47D029
:10D4C00021682B7F464D0022C1F81021D1F81011A0
:10D4D00001912168DDF804C0C1F82021D1F82011A4
:10D4E00002912168DDF808C0C1F82421D1F8241187
:10D4F00003912168DDF80CC0C1F84421D1F8441132
:10D5000004912168DDF810C0C1F85821D1F85811F4
:10D51000226805910599C2F80453226842F3073145
:10D5200000294FEA12322CDB01F1604101F5614123
:10D530005B01DBB281F8003323682A4D43F30732E5
:10D540005209C3F30433012101FA03F345F82230F1
:10D550004744226806EB8706002301240821C2F80D
:10D560000015C6E9063386F82040736107B0BDE8B0
:10D57000F083112007B0BDE8F083082007B0BDE8B4
:10D58000F083194902F00F025B011144DBB20B7604
:10D59000D2E7AB68591C06D003F5E0734FF0A04208
:10D5A000002142F82310EB685A1C0DD001224FF0E5
:10D5B000A04102FA03F3C1F80835EB6803F5E07304
:10D5C000032241F82320EB682268A968C2F80835D5
:10D5D000C2F8101568E700BF502B0020B1D201003F
:10D5E0001003420000E100E0FCEC00E0F0B401F0C8
:10D5F0006044B4F1005F82B02CD10579274E05EB71
:10D60000C50406EB840403466069EF0000283ED1A0
:10D610006261A1601A68C2F82001D2F820C11A68BC
:10D62000CDF804C0DDF804C0C2F85801D2F8582182
:10D6300000921A68DDF800C0D4F814C0C2F844158E
:10D64000C2F848C51A6801219160626832B102B01F
:10D65000F0BC7047102002B0F0BC70471A6800E0C0
:10D66000C8B9D2F82011D2F858010029F8D090B9E1
:10D670000121D1601B68D3F85821002AFBD07B1907
:10D6800006EB830300225A6102B0F0BC7047112000
:10D6900002B0F0BC70470F20F1E700BF502B002014
:10D6A0000379054A03EBC30302EB8303586900388F
:10D6B00018BF0120704700BF502B002001F06043CD
:10D6C000B3F1005F5ED1F0B40479474D04EBC406BA
:10D6D00005EB860682B07668E30026B107684FF452
:10D6E000047CC7F808C3234405EB83039C694CBB47
:10D6F0009A61DC61D9600368C3F81041D3F8106106
:10D7000003680196019EC3F84441D3F8444103687D
:10D710000094009CC3F83415C3F83825036801222F
:10D720001A60047904EBC40305EB8303E6005B682D
:10D7300053B303684FF40472C3F80423002002B00B
:10D74000F0BC7047DC69002C37D11961DA610368DD
:10D75000C3F81041D3F8106103680196019EC3F825
:10D760004441D3F8444103680094009CC3F8341545
:10D77000C3F838250268D2F8003243F02003C2F81B
:10D780000032CEE710207047036801E0E9B910BB12
:10D79000D3F81021D3F84411D3F82401002AF5D08E
:10D7A000344400284FF0000305EB840518BF032024
:10D7B000994218BF0F20AB61C1E796B103684FF4DF
:10D7C0000472C3F804231120B9E7344405EB84053F
:10D7D0000F20AA61B3E7344405EB84050320A96157
:10D7E000ADE71120ABE700BF502B00200220FEF771
:10D7F0008FBC00BF2DE9F0470D460646FEF7A8FC9A
:10D80000032805D8012D04461AD0022D27D00DB1CA
:10D81000BDE8F0871B48FDF747F81B4B1B4A04EB9C
:10D8200044010B44125D9D78AA42F1D1002DEFD046
:10D83000174B1B68002BEBD02846BDE8F047184774
:10D84000114F00EB4003FA18FD5C53784FEA400893
:10D850005BB9A04447440D4BBA781A55E6E70A4B2A
:10D8600000EB40041C446578E0E7DFF828900548A9
:10D870004A464FF48041FCF7D1FF0028E9D189F8EE
:10D880000060E6E7982B0020D82B0020F42B002026
:10D89000EC2B0020742B002010B50078FEF758FC0C
:10D8A00003280BD8064B00EB40001844407828B101
:10D8B000044B1B6813B1BDE81040184710BD00BFF2
:10D8C000D82B0020EC2B002038B5C04D2B78044617
:10D8D0006BB1BF4B1B7800202870002B4DD0FEF79A
:10D8E000DFFB0120FEF7DCFB0320FEF7D9FB172C42
:10D8F00000F26A81DFE814F0F700630063009F0024
:10D90000B200C500D700970050004400500044000A
:10D910007A0018001800180018001800E50024010B
:10D9200081000C015C005C00AA48FCF7BDFFD4F14B
:10D930001104054600F03281002840F02F81012CAF
:10D9400014D0C82303FB04F44FF47A704FF400435F
:10D950000021C3FB04014FF4FA62002303F070FCC2
:10D960002A4601469B48FCF759FF05460220FEF770
:10D970008BFB974B01221A701FE0FEF79DFBB6E769
:10D9800001202870FEF7C4FBBDE838409248002211
:10D990004FF40051FCF742BF01202870FEF7B8FB9E
:10D9A000BDE838408C48002240F26661FCF736BF83
:10D9B000FEF798FB894B00251C70284638BD0020D7
:10D9C000FEF754FB002840F0CF80FEF75DFB40F6E9
:10D9D000CD4141F69A13022C18BF19467F4B7E4861
:10D9E0001C70BDE838400022FCF718BFFEF77AFB38
:10D9F0007A4B0C221A700025DFE7754B1B78002B41
:10DA000000F0DF800020FEF74BFB0120FEF748FB13
:10DA10000320FEF745FB0120FEF736FB6F4B142277
:10DA20001A700025C9E70020FEF72EFB6B4B07227A
:10DA30001A700025C1E70020FEF718FB002840F00F
:10DA4000A780FEF721FB40F6CD41644B62480324DA
:10DA50001C70BDE838400022FCF7E0BE0020FEF755
:10DA600005FB002840F08E80FEF70EFB41F69A1170
:10DA70005A4B594804241C70BDE838400022FCF77A
:10DA8000CDBE0020FEF7F2FA002877D1FEF7FCFAAF
:10DA9000524B514805241C70BDE83840002240F626
:10DAA000CD41FCF7BBBE0020FEF732FB4B4B4A4892
:10DAB00006241C70BDE83840002240F26661FCF785
:10DAC000ADBE434B1B78002B78D00020FEF7E8FA60
:10DAD0000120FEF7E5FA0320FEF7E2FA3F4B12229F
:10DAE0001A70002569E73A4B1B78002B60D00020A4
:10DAF000FEF7D6FA0120FEF7D3FA0320FEF7D0FA9C
:10DB00003548FCF7D1FE354B002205461A7054E724
:10DB10002F4B1B78002B48D00020FEF7C1FA0120C4
:10DB2000FEF7BEFA0320FEF7BBFA0020FEF7ACFAC0
:10DB30000120FEF7A9FA294B15221A7000253CE7AF
:10DB4000234B1B78BBB30020FEF7AAFA0120FEF797
:10DB5000A7FA0320FEF7A4FA0020FEF795FA1F4B60
:10DB600013221A70002528E70020FEF799FA022CEC
:10DB700047F2333118BF4FF480312FE70020FEF712
:10DB80008FFA85E70020FEF78BFA4FF480316FE7BC
:10DB90000020FEF785FA43F2333156E70220FEF704
:10DBA0007FFA0B4B00221A7007E7FEF785FABCE7F5
:10DBB000FEF782FAA4E7FEF77FFACDE7FEF77CFADC
:10DBC0008CE7FEF779FA26E70025F6E6E82B002039
:10DBD000752B0020782B0020B82B0020F02B002084
:10DBE000044B1B68DB0700D47047034B1878FFF722
:10DBF0006BBE00BFE42B0020F02B0020032801D9CE
:10DC000000207047FEF796BA044B1B6813F001031F
:10DC100001D118467047FFF757BE00BFE42B002024
:10DC200038B5244B244A196081070446106004D497
:10DC300010F001052CD1284638BD204B20480E2578
:10DC40000F2210211D701125DA7099715D7240F25A
:10DC500033320421FCF70AFB054630B1E207EAD56E
:10DC60000120FEF78DFA284638BDFCF75FFB05461C
:10DC70000028F3D10146134A1348FCF7C1FDE3071E
:10DC80000546D8D50120FEF77BFA002DD3D102E05E
:10DC90000120FEF775FA0D4A0D480021FCF7B0FD92
:10DCA00005460028C7D1BDE838400A4A0A48012184
:10DCB000FCF7A6BDEC2B0020E42B0020D82B002085
:10DCC000B81C020099D80100DC1C0200E1DB010055
:10DCD000E01C0200EDD70100D81C0200032806D882
:10DCE000012A06D001291BD0022908D071B10720D2
:10DCF0007047012911D002294FF00002F6D10B4BD9
:10DD000000EB4000034400205A707047074B00EBC3
:10DD10004000034408469A70704700F10E02D2B2E8
:10DD200000EB400301490020CA547047D82B002063
:10DD3000032801D90620704708B5FEF71BFA8000BA
:10DD400000F1A0430020D3F8002722F44032C3F8AA
:10DD50000027D3F8002742F44032C3F8002708BD5B
:10DD600010B50388102B07D0112B04D1254B186850
:10DD70000138186030B110BD224C216811B3013157
:10DD8000216010BD01220221FFF7A8FF40B1072842
:10DD900006D01D4B1B68002BEDD0BDE81040184786
:10DDA000072202210120FFF799FF08B10728F0D1CF
:10DDB000002108460A22FFF791FF0028DBD0072840
:10DDC000E7D1D8E701220846FFF788FF38B10728D6
:10DDD00005D00D4B1B6803B198472168CFE7072298
:10DDE00002210120FFF77AFF08B10728F1D10422B0
:10DDF00002210020FFF772FF0028EED00728E8D1AB
:10DE0000EBE700BFFC2B0020F82B002008B500201A
:10DE1000FFF78EFF10B1062800D008BD0120FFF7E4
:10DE200087FF0028F9D0062808BF002008BD00BFE2
:10DE3000184B10B5186031B101200C46FFF7DEFE1B
:10DE4000F8B102232370144B186808B1002010BDEC
:10DE500001220221FFF742FF08B10728F7D107226C
:10DE600002210120FFF73AFF08B10728EFD1002176
:10DE700008460A22FFF732FF0028E7D00728E5D03E
:10DE800010BDFFF7BBFE10B10B232370DBE7207042
:10DE9000D9E700BFF82B0020FC2B002076DF70476D
:10DEA0007ADF70477CDF70477FDF70478FDF704716
:10DEB000B1DF704733DF7047FCF74EBA10B5038807
:10DEC000212B82B004460FD80F2B18D9103B112BF1
:10DED00015D8DFE803F0243C144C14141414141463
:10DEE000141414141414141A522B4AD0562B08D19B
:10DEF000A0881321FFF7D2FF08B1FCF72DFA02B07A
:10DF000010BD3B2BF4D002B010BD00238088ADF8CB
:10DF1000043001A9FFF7CAFF0028F0D0EDE71F4B3E
:10DF20001F482049C01AC008000440F00300FBF756
:10DF30002FFC0720FFF768FE00282CD11A4BA18880
:10DF40001A48198001F03CFD0028D8D0D5E7134BC2
:10DF500013481749C01AC008000440F00300FBF73B
:10DF600017FC114B4FF6FF721A8002B010BD0E4A1B
:10DF70000023108885211A46FFF796FF0028BED09F
:10DF8000BBE7094A0023108819461A46FFF790FF9D
:10DF90000028B4D0B1E7FCF7DFF9CFE74423020053
:10DFA0006C230200E41C0200F6220020042E002054
:10DFB000F01C02000E4B4A881B889A4200D0704722
:10DFC0000A8840F677239A42F9D110B4094A0A48E0
:10DFD0008B880A4C0A49801A033BC0089BB2000494
:10DFE000238040F003005DF8044B1A46FBF778BD30
:10DFF000F6220020442302006C230200F4220020B9
:10E00000001D020008B5037803B108BD054B3B2194
:10E010001888FFF743FF0028F7D0BDE80840FCF759
:10E020009BB900BFF6220020072808B51CD00A289B
:10E030000ED0042800D008BD154B13211888FFF717
:10E040002DFF30F00803F6D0BDE80840FCF784B996
:10E050000020FFF7D9FDB8B9FFF7D8FE88B9FFF760
:10E0600029FF0028F0D108BD094B1A884FF6FF732D
:10E070009A42E0D1074800F0FBFF30F00803E3D1FB
:10E0800008BDFCF769F9EAE7FCF766F9E4E700BFC9
:10E09000F6220020F82C0020F0B50378012B83B085
:10E0A00004D0022B02D033B103B0F0BD4068FCF7BE
:10E0B00053F903B0F0BD194C194D20782844FCF7F2
:10E0C00021FD22780132D2B21544227015F8013CAC
:10E0D0000A2B05D00D2B03D0124B1B889342E3D89B
:10E0E000012A12D9104F0E4E104DADF806203B8874
:10E0F0000DF106023146284601F002FE082804D040
:10E10000132806D0052800D028B90023237003B0B7
:10E11000F0BD2278E9E7FCF71FF9F6E7F42C0020C0
:10E12000002C0020F4220020F6220020F8220020FB
:10E130002DE9F0410578D5B9838A06467BB3194F9E
:10E14000194BDFF86880FF1AFF083F0447F001070A
:10E150003369585DFCF704FD0446A8B9B38A01355C
:10E16000AB42F5D8013B3269D35C0D2B01D0BDE841
:10E17000F0810A20FCF7F4FC1128F8D10A20FCF702
:10E18000EFFC1128F5D0F2E7112C02464146384643
:10E19000DED0FBF7CDFB2046FCF7DEF8DEE74FF0E4
:10E1A000FF33E0E76C230200442302001C1D020041
:10E1B000FCF7D2B808B530B1032803D10220FFF72D
:10E1C00023FD50B908BDFFF71FFD50B9FFF71EFE34
:10E1D00068B9FFF76FFE0028F4D0BDE80840FCF7EF
:10E1E000BBB8FCF7B9F8FFF711FE0028F1D0FCF737
:10E1F000B3F8EEE708B50B490B4801F003FB28B96B
:10E200000948F72101F012FB40B908BDFCF7A4F85A
:10E210000548F72101F00AFB0028F6D0BDE80840C8
:10E22000FCF79AB8B5DF0100F02D002000B5874D4E
:10E23000874BB1B004AC00930FCD0FC495E8030039
:10E240004FF4807384E803000193824C0393824A65
:10E250000294694604A80723FCF7D8FB002840F085
:10E26000C4804FF480410020FBF7FEF8002840F006
:10E27000E980FBF7E9F8FCF78DFA002840F0DF8031
:10E2800076490320FFF7CCFC002840F0D58004A994
:10E290000020FFF7CDFD002840F0CB80FDF73CFCCF
:10E2A000002840F0C38001F063FD002840F0BB80EF
:10E2B000002304A90120049301F03AFE002840F055
:10E2C000AF8004A801F010FF002840F0A6801123C1
:10E2D00063488DF8003001F0EDFF614982B2684675
:10E2E000FFF7E0FD002840F095800822002104A8F7
:10E2F00001F0B8FF5B4B049304A84FF0C87305937B
:10E30000FFF7CEFD002840F08280FFF773FF564BE9
:10E310005648049304A901F041FB002874D1002160
:10E320000422684601F09EFF514B52480093694613
:10E3300001F072FC002864D1AC22002104A801F095
:10E3400091FF4D4C4D4A189402214FF4A0600123D7
:10E350008DF81010ADF81200402444F25065484882
:10E36000ADF85C3004A9CDE926458DF88C302D92AE
:10E3700000F0BAFD002841D14148012100F0B0FD74
:10E380001C22002104A801F06DFF00233D4A0493E4
:10E39000ADF81E308DF820303B4B4FF4A0354FF4D4
:10E3A000F024032104A8CDE90554CDE909238DF813
:10E3B0001C1000F0BBFFF0B9344801F05BFF344B98
:10E3C00034483549C01AC008000440F00300FBF788
:10E3D000DFF92B48032100F0FFFD48B9FBF79EF859
:10E3E0000028FBD1FDF7AEFBF8E7FBF7B5FF38E7F8
:10E3F000FBF7B2FFF2E7FBF7AFFFDDE7FBF7ACFFA0
:10E40000BAE7FBF7A9FF97E7FBF7A6FF87E7FBF75C
:10E41000A3FF7AE7FBF7A0FF67E7FBF79DFF56E74F
:10E42000FBF79AFF4DE7FBF797FF41E7FBF794FFF8
:10E4300039E7FBF791FF31E7FBF78EFF27E7FBF7A3
:10E440008BFF1DE7FBF788FF13E700BF941D020059
:10E45000102E0020102F002099E0010029E001007B
:10E46000481D020010003C00B9DE0100042E00200F
:10E4700031E10100F8220020F0220020B5E1010086
:10E48000F82C002005E00100B1E10100541D02005C
:10E49000442302006C230200681D02002DE9F04FA6
:10E4A000DFF8B09100EB400509EBC50583B0EE6ADB
:10E4B000012E07468A4690464FEA400407D0022EB6
:10E4C0004FD056B30026304603B0BDE8F08FAE6A99
:10E4D000D5F824B05E457DD9013EA6EB0B062D6A2A
:10E4E000464528BF4646A5EB0B0296427ED27B1CD2
:10E4F00003EB430309EBC3033246586851465844C3
:10E5000001F0A2FE274409EBC70906EB0B023046D7
:10E51000C9F8242003B0BDE8F08FAB6AD5F824B069
:10E520005B459CBF2A6A9B18013BA3EB0B039845F4
:10E53000C9D8044409EBC4040137256AA5EB0B06CE
:10E5400007EB4707B04509EBC7096FD2D9F80400BC
:10E550004246584401F078FE08EB0B0363624646DE
:10E56000B1E7013707EB47076C6AFF000026AB6A8B
:10E57000A34203F1FF3222D9131B2A6A434509EB58
:10E580000701A2EB040B28BF43469B45486828BF00
:10E590009B46204451465A4601F056FE2B6A5C4485
:10E5A0009C425E44A8EB0B08DA440DD06C62B8F1D3
:10E5B000000F88D0AB6AA34203F1FF32DCD82A6A8D
:10E5C0001344013B1B1BD9E700246C62B8F1000F18
:10E5D000CDD178E72D6A2E44013EA6EB0B064645C9
:10E5E00028BF4646A5EB0B02964280D307F10108EF
:10E5F00008EB480809EBC8085146D8F80400019216
:10E60000584401F021FE751B019AD8F804005D44BE
:10E610000AEB02012A4601F017FE274409EBC7095D
:10E620003046C9F8245003B0BDE8F08FD9F8040093
:10E630005844C3443246ABEB050501F005FE0AEB36
:10E640000601D9F804002A4601F0FEFD464665623F
:10E6500039E700BF1433002038B5114C114B124874
:10E66000E36110254FF40073104A11492362E064FE
:10E6700000232565E01D0225A3626362E362A365B2
:10E680006365E365A261A264C4E9045501F00AFE72
:10E690000849204601F006FE2023A37138BD00BFC3
:10E6A000143300202030002010300020AC1D020068
:10E6B000B81D0200BC1D02006DDF704779DF704796
:10E6C0007DDF704764DF70472DE9F04F87B0074664
:10E6D000119D00882C880394BDF84840DDF840A0C7
:10E6E000CDE90142002858D04FF0000988461E4667
:10E6F000CB4604E03A880BF1010B93452CDAD8F8AD
:10E70000002052F82B00059000220DF1130105A8FE
:10E71000FFF7D8FF044658BB9DF81320B242E9D159
:10E72000B9F1000F28D02A88019B9119994239DC50
:10E7300052440DF1130105A84FF00109FFF7C2FF84
:10E74000002834D129889DF813200A442A803A8869
:10E750000BF1010B9345D2DBB9F1000F1DD02B88D3
:10E76000039A013B9B1A9BB2FF2B1BD80AF802307D
:10E77000204607B0BDE8F08F2A88019B511C324427
:10E7800002329A4289B20DDC029B29800AF80130DC
:10E790002A88013292B22A80CAE70024204607B0B4
:10E7A000BDE8F08F0C24204607B0BDE8F08F04468A
:10E7B000204607B0BDE8F08F2DE9F0470023178809
:10E7C000138090F82D3088B0144605460E46002B75
:10E7D00040F00081AA78002A40F0F580E978A1B1E4
:10E7E000DA1CBA4200F2F2800222F254238801338A
:10E7F0009BB201222380F254238813449BB22380CE
:10E80000F154238813449BB223806A68AAB1D91CAF
:10E81000B94200F2DB80022192F90020F1542388F2
:10E8200001339BB20A212380F154238801339BB228
:10E830002380F2542388013323802B89002B40F05E
:10E84000F3802B8A002B40F02B812B8B002B40F088
:10E8500046812B6A002B44D02088821DBA4200F2E8
:10E86000B5801A88052A40F299816FF4486802EB56
:10E87000080189B24FF27D3C614540F28F81598891
:10E88000052940F28B816FF4486E8E441FFA8EFE8C
:10E89000E64540F283814FF6FF7C624504D0614536
:10E8A00002D08A4200F27A81052232542288013253
:10E8B00092B212212280B1542288013292B2228077
:10E8C0001988B1543244090A51702288023292B236
:10E8D00022805B88B35432441B0A5370238802336E
:10E8E00023806B6A002B2FD09988B4F800C0881C55
:10E8F0000CF102020244BA4268D8FE2866D80331FD
:10E9000006F80C102288013292B2FF212280B15405
:10E910002288013292B222801988B1543244090A05
:10E9200051702088023080B220809A8862B1996844
:10E930000593002900F03281304401F085FC059BED
:10E940009A8823881344238095F82C30002B40F0BC
:10E95000E380287800283AD02B88012B00F01E8114
:10E9600023889A1CBA4231D8012804D1697802312F
:10E9700019448F422AD3023FFF1ABFB2B01806A92A
:10E98000ADF81870FFF79CFE08BB2B78022B00F047
:10E990000D816978BDF818209142C0F0038197423B
:10E9A000C0F0008117460922FE2F0FD82388791C5A
:10E9B000F154238801339BB22380F254238801331E
:10E9C0001F44278003E00433BB424CD90C2008B01D
:10E9D000BDE8F087082FF9D906A8FFF76DFE0028DB
:10E9E000F5D123880822F254238801339BB21B22DD
:10E9F0002380F2542088013080B2208006223044E7
:10EA00000DF1190101F020FC23889DF81820063330
:10EA10009BB212F0FE0218BF01222380F254238819
:10EA200001339BB22380D5E605F10808022305F1E6
:10EA30000C01CDE90147009640461A460591FFF7C3
:10EA400043FE0028C3D1CDE9014705990096404611
:10EA500010230622FFF738FE0028B8D12B8A002B9E
:10EA60003FF4F3AE1CE006A8FFF728FE0028AED165
:10EA70002388BDF818200321F154238801339BB269
:10EA800019212380F154238801339BB2F11823808C
:10EA9000F254130A4B70238802339BB223809DE605
:10EAA00005F1100805F11401CDE901470096404633
:10EAB000022303220591FFF707FE002887D1CDE945
:10EAC000014705990096404610230722FFF7FCFDF9
:10EAD00000287FF47CAF2B8B002B3FF4BAAE05F1FE
