:100000000C942A000C943C000C943C000C943C0092
:100010000C943C000C943E000C943C000C943C006E
:100020000C943C000C943C000C943C000C943C0060
:100030000C943C000C943C000C943C000C943C0050
:100040000C943C000C943C000C943C000C943C0040
:100050000C943C0011241FBECFE5D8E0DEBFCDBF1D
:1000600020E0A0E6B0E001C01D92A236B207E1F7A1
:100070000E9464000C946F000C9400001F920F9279
:100080000FB60F9211248F939F93809160009091EF
:100090006100CD9749F495B381E0892785BB109223
:1000A00061001092600009C0809160009091610031
:1000B000019690936100809360009F918F910F90C3
:1000C0000FBE0F901F901895F894A09A85B5846084
:1000D00085BD89B7806489BF14BC7894FFCFF8943C
:0200E000FFCF50
:00000001FF
