:100000000C942A000C943F000C943F000C943F0089
:100010000C943F000C943F000C943F000C943F0064
:100020000C943F000C943F000C944C000C94410045
:100030000C943F000C943F000C943F000C943F0044
:100040000C945C000C943F000C943F000C943F0017
:100050000C943F0011241FBECFE5D8E0DEBFCDBF1A
:1000600010E0A0E6B0E0EEE0F1E002C005900D92F5
:10007000A236B107D9F70E9474000C9485000C9445
:1000800000001F920F920FB60F921124A89A0F90A2
:100090000FBE0F901F9018951F920F920FB60F92E0
:1000A00011248F93809160008CBFA8988F910F903E
:1000B0000FBE0F901F9018951F920F920FB60F92C0
:1000C00011248F9385B180936000369A8F910F90A1
:1000D0000FBE0F901F9018953E9A86B1876086B923
:1000E0003D9A339A379A0895F894A09A83B7856019
:1000F00083BF89B7836089BF12BE809160008CBFC7
:0E0100000E946C007894369AFFCFF894FFCFDF
:02010E0064008B
:00000001FF
