:100000000C942A000C9434000C9434000C943400AA
:100010000C9434000C9434000C9434000C94340090
:100020000C9434000C9434000C9441000C94360071
:100030000C9434000C9434000C9434000C94340070
:100040000C9434000C9434000C9434000C94340060
:100050000C94340011241FBECFE5D8E0DEBFCDBF25
:100060000E944C000C9459000C9400001F920F92B7
:100070000FB60F921124A89A0F900FBE0F901F90E9
:1000800018951F920F920FB60F921124A8980F90F7
:100090000FBE0F901F901895F894A09A83B78560B3
:1000A00083BF89B7836089BF12BE80EE8CBF78940E
:0600B000FFCFF894FFCF22
:00000001FF
