:100000000C94AA000C94C7000C94C7000C94C70071
:100010000C94C7000C94C7000C94C7000C94C70044
:100020000C94C7000C94C7000C9400010C94C900F8
:100030000C94C7000C94C7000C94C7000C94C70024
:100040000C9416010C94C7000C94C7000C94C700C4
:100050000C94C700808386898C8F9295989C9FA270
:10006000A5A8ABAEB0B3B6B9BCBFC1C4C7C9CCCEEE
:10007000D1D3D5D8DADCDEE0E2E4E6E8EAECEDEF75
:10008000F0F2F3F5F6F7F8F9FAFBFCFCFDFEFEFFE3
:10009000FFFFFFFFFFFFFFFFFFFFFEFEFDFCFCFB7E
:1000A000FAF9F8F7F6F5F3F2F0EFEDECEAE8E6E44A
:1000B000E2E0DEDCDAD8D5D3D1CECCC9C7C4C1BF2B
:1000C000BCB9B6B3B0AEABA8A5A29F9C9895928FD1
:1000D0008C898683807C797673706D6A6763605DD6
:1000E0005A5754514F4C494643403E3B38363331C2
:1000F0002E2C2A272523211F1D1B1917151312101B
:100100000F0D0C0A0908070605040303020101008C
:1001100000000000000000000000010102030304D1
:1001200005060708090A0C0D0F1012131517191BE5
:100130001D1F212325272A2C2E313336383B3E40E4
:100140004346494C4F5154575A5D6063676A6D701E
:100150007376797C11241FBECFE5D8E0DEBFCDBF1A
:1001600010E0A0E6B0E0E8E9F2E002C005900D92F0
:10017000A236B107D9F720E0A2E6B0E001C01D9297
:10018000A536B207E1F70E9437010C944A010C949E
:1001900000001F920F920FB60F9211242F933F93DE
:1001A0004F935F938F939F93A89A209164004091FF
:1001B000600030E086E090E0841B9109AC01440FC0
:1001C000551F840F951F2817390751F4809163003C
:1001D0008C5E80936300809163001092640005C080
:1001E000809164008F5F809364009F918F915F91F5
:1001F0004F913F912F910F900FBE0F901F90189528
:100200001F920F920FB60F921124EF93FF93E0917C
:100210006300F0E0EC5AFF4FE491ECBFA898FF9127
:10022000EF910F900FBE0F901F9018951F920F9295
:100230000FB60F9211248F939F9395B382E0892775
:1002400085BB85B18093620085E080936000369A1B
:100250009F918F910F900FBE0F901F9018953E9A0F
:1002600086B1876086B93D9A339A379A0895F89493
:10027000A09A83B7816083BF89B7836089BF12BEAC
:10028000809162008CBF109264000E942F017894CC
:08029000369AFFCFF894FFCF6E
:0202980005005F
:00000001FF
