:100000000C942A000C943C000C943C000C943C0092
:100010000C943C000C943C000C943C000C943C0070
:100020000C943C000C943C000C943C000C943C0060
:100030000C943C000C943C000C943C000C943C0050
:100040000C943E000C943C000C943C000C943C003E
:100050000C943C0011241FBECFE5D8E0DEBFCDBF1D
:1000600020E0A0E6B0E001C01D92A136B207E1F7A2
:100070000E9459000C946A000C9400001F920F9289
:100080000FB60F9211248F9385B1809360008091F9
:1000900060008CBF369A8F910F900FBE0F901F900B
:1000A00018953E9A86B1876086B93D9A339A379AF9
:1000B0000895F894BB9A83B7886783BF83B7846039
:1000C00083BF12BE809160008CBF0E945100789463
:0800D000369AFFCFF894FFCF30
:00000001FF
